:1000000002000602003B787FE4F6D8FD75813102DC
:0200100009D70E
:0D00130002003F8F99750A01E50A70FC227A
:10002300020AFD751D017B007A00791D7F01120B09
:10003300BCE4FD7F01020B407530013275300232A2
:0F004300020A22753003327530043275300532EF
:0300530002004662
:10005B0002004A1207C4FF600C120016740129F942
:10006B00E43AFA80EE227D607C09ED1D70011C14D0
:06007B004C70F7DFF122DA
:0300830002004E2A
:03008B00020A6BFB
:10009300020AB48F268B278A288929E52664016002
:1000A3000302020CF508F509F50AF50BF50CF52A20
:1000B300F52B7440252BF5827401352AF583E4F082
:1000C300052BE52B7002052A6480452A70E4E4F5CC
:1000D3002AF52B7400252BF5827400352AF583E469
:1000E300F0052BE52B7002052A6480452A70E4ABEA
:1000F30027AA28A9291207C4FFE598543F4FF5986A
:10010300EF64C06008EF644060030201C190000225
:100113001208FC7F807E8D7D5B7C001208468F2F4A
:100123008E2E8D2D8C2CE4FFFE7D01FCAB2FAA2E91
:10013300A92DA82CC31208D840037FFF22C3E4953E
:100143002FF52FE4952EF52E7401952DF52DE495BD
:100153002CF52CAB27AA28A9299000011207DDFB57
:100163006401702CC28E538EFE5389BF5389CF43D3
:100173008E40AF2FAE2EAD2DAC2C78081208E98F30
:100183008D852F8BC2AB5389BF538FFDD28E806277
:10019300EB64027026538EEF438E01538EF7438E2A
:1001A30004AF2FAE2EAD2DAC2C78081208E98FD6F4
:1001B300852FD753AFFB438E1080377FFF22AB27AA
:1001C300AA28A9291207C4FF70139000081207DD9B
:1001D300B40105438E20801A538EDF8015EFB4805F
:1001E300119000081207DDB4010543878080035393
:1001F300877FAB27AA28A9299000071207DD70047F
:10020300C29C8002D29C7F0022E526640260030226
:100213000305F50DF50EF50FF510F511F52AF52B80
:1002230074E0252BF5827401352AF583E4F0052B60
:10023300E52B7002052A6480452A70E4E4F52AF56B
:100243002B7480252BF5827400352AF583E4F005A1
:100253002BE52B7002052A6480452A70E4AB27AA9C
:1002630028A9291207C4FF64C06005EF64407075B4
:10027300EFB4C005439A808003539A7F9000021223
:1002830008FC7F807E8D7D5B7C001208468F2F8E5D
:100293002E8D2D8C2CE4FFFE7D01FCAB2FAA2EA905
:1002A3002DA82CC31208D840037FFF22C3E4952F47
:1002B300F52FE4952EF52E7401952DF52DE4952C4F
:1002C300F52C538EEF538EF7438E04AF2FAE2EAD26
:1002D3002DAC2C78081208E98FD6852FD753AFFBA6
:1002E300438E1080037FFF22AB27AA28A929900001
:1002F300071207DDC454F0FFE59A54EF4FF59A7FD8
:100303000022E52664036003020439F512F513F5B0
:1003130014F515F516F52AF52B7460252BF5827463
:1003230002352AF583E4F0052BE52B7002052A64D8
:1003330040452A70E4E4F52AF52B7400252BF58259
:100343007401352AF583E4F0052BE52B7002052AA9
:100353006440452A70E4AB27AA28A9291207C4FFE1
:1003630064C06008EF6440600302041CEFB4C0057E
:1003730043AC80800353AC7F9000021208FC7F8063
:100383007E8D7D5B7C001208468F2F8E2E8D2D8CEB
:100393002CE4FFFE7D01FCAB2FAA2EA92DA82CC3B4
:1003A3001208D840037FFF22C3E4952FF52FE4956D
:1003B3002EF52E7401952DF52DE4952CF52CAB27F8
:1003C300AA28A9299000011207DDFBB4031D43AC41
:1003D30040AF2FAE2EAD2DAC2C78081208E98FD488
:1003E300852FD553D1F043D10A8031EB64027026B7
:1003F300538EEF53ACBF538EF7438E04AF2FAE2E05
:10040300AD2DAC2C78081208E98FD6852FD753AFC2
:10041300FB438E1080067FFF227FFF22AB27AA2893
:10042300A9299000071207DDC454F0FFE5AC54EF8F
:100433004FF5AC7F0022E5266404600302056DF5E9
:1004430017F518F519F51AF51BF52AF52B74A025E0
:100453002BF5827402352AF583E4F0052BE52B7026
:1004630002052A6420452A70E4E4F52AF52B74C0BA
:10047300252BF5827401352AF583E4F0052BE52B52
:100483007002052A6420452A70E4AB27AA28A9290B
:100493001207C4FF64C06008EF64406003020550A4
:1004A300EFB4C005438480800353847F900002121D
:1004B30008FC7F807E8D7D5B7C001208468F2F8E2B
:1004C3002E8D2D8C2CE4FFFE7D01FCAB2FAA2EA9D3
:1004D3002DA82CC31208D840037FFF22C3E4952F15
:1004E300F52FE4952EF52E7401952DF52DE4952C1D
:1004F300F52CAB27AA28A9299000011207DDFBB42C
:10050300041D438440AF2FAE2EAD2DAC2C780812C2
:1005130008E98FD2852FD353D10F43D1A08031EB7C
:1005230064027026538EEF5384BF538EF7438E04B9
:10053300AF2FAE2EAD2DAC2C78081208E98FD685DF
:100543002FD753AFFB438E1080067FFF227FFF22FE
:10055300AB27AA28A9299000071207DDC454F0FF8E
:10056300E58454EF4FF5847F00227FFF22EFD3947D
:100573000740037FFF221207C4FED3940340037F87
:10058300FF22EF7041EE700B9000011207DDF45271
:100593009352941207C4B4010B9000011207DD4279
:1005A30093F452941207C4FEB4020A900001120796
:1005B300DD42934294EEB4030D9000011207DDFE79
:1005C300F45293EE4294EF640170431207C4FE7039
:1005D3000B9000011207DDF452915292EEB4010B1D
:1005E3009000011207DD4291F452921207C4B40243
:1005F3000A9000011207DD429142921207C4B4032C
:100603000D9000011207DDFEF45291EE4292EF6469
:100613000270431207C4FE700B9000011207DDF451
:1006230052955296EEB4010B9000011207DD4295EC
:10063300F452961207C4B4020A9000011207DD4275
:100643009542961207C4B4030D9000011207DDFE14
:10065300F45295EE4296EF640370431207C4FE70A2
:100663000B9000011207DDF452B152B2EEB4010B4C
:100673009000011207DD42B1F452B21207C4B40272
:100683000A9000011207DD42B142B21207C4B4035B
:100693000D9000011207DDFEF452B1EE42B2EF6499
:1006A3000470431207C4FE700B9000011207DDF4BF
:1006B30052B352B4EEB4010B9000011207DD42B302
:1006C300F452B41207C4B4020A9000011207DD42C7
:1006D300B342B41207C4B4030D9000011207DDFE48
:1006E300F452B3EE42B4EF640570431207C4FE70D4
:1006F3000B9000011207DDF452C952CAEEB4010B8C
:100703009000011207DD42C9F452CA1207C4B402B1
:100713000A9000011207DD42C942CA1207C4B4039A
:100723000D9000011207DDFEF452C9EE42CAEF64D8
:100733000670431207C4FE700B9000011207DDF42C
:1007430052CB52CCEEB4010B9000011207DD42CB29
:10075300F452CC1207C4B4020A9000011207DD421E
:10076300CB42CC1207C4B4030D9000011207DDFE87
:10077300F452CBEE42CCEF640770431207C4FF7010
:100783000B9000011207DDF452E152E2EFB4010BCA
:100793009000011207DD42E1F452E21207C4B402F1
:1007A3000A9000011207DD42E142E21207C4B403DA
:1007B3000D9000011207DDFFF452E1EF42E27F00EA
:1007C30022BB010689828A83E0225002E722BBFE14
:1007D30002E32289828A83E49322BB010CE5822906
:1007E300F582E5833AF583E0225006E92582F8E6AF
:1007F30022BBFE06E92582F8E222E58229F582E59D
:10080300833AF583E4932275F008758200EF2FFF96
:10081300EE33FECD33CDCC33CCC58233C5829BEDD5
:100823009AEC99E58298400CF582EE9BFEED9AFDD9
:10083300EC99FC0FD5F0D6E4CEFBE4CDFAE4CCF989
:10084300A88222B800C1B90059BA002DEC8BF084FC
:10085300CFCECDFCE5F0CBF97818EF2FFFEE33FECA
:10086300ED33FDEC33FCEB33FB10D703994004EB82
:1008730099FB0FD8E5E4F9FA227818EF2FFFEE334E
:10088300FEED33FDEC33FCC933C910D7059BE99A60
:100893004007EC9BFCE99AF90FD8E0E4C9FAE4CCF1
:1008A300FB2275F010EF2FFFEE33FEED33FDCC335B
:1008B300CCC833C810D7079BEC9AE899400AED9B44
:1008C300FDEC9AFCE899F80FD5F0DAE4CDFBE4CC23
:1008D300FAE4C8F922EB9FF5F0EA9E42F0E99D4263
:1008E300F0E89C45F022E8600FECC313FCED13FD28
:1008F300EE13FEEF13FFD8F122BB010DE58229F5BC
:1009030082E5833AF5830209395007E92582F80223
:10091300092CBBFE07E92582F8020945E58229F582
:1009230082E5833AF583020952E6FB08E6F908E615
:10093300FA08E6CBF822E0F8A3E0F9A3E0FAA3E093
:10094300FB22E2FB08E2F908E2FA08E2CBF822E430
:1009530093F8740193F9740293FA740393FB227569
:100963001E08E4F51DFB7A00791D7F0312057075DF
:100973001E04751D017B007A00791D7F031205702B
:10098300751E03E4F51DFB7A00791D7F03120570C4
:10099300751EC0751D027B007A00791D7F03120549
:1009A30070751EE0751D027B007A00791D7F0112B0
:1009B3000570751E10751D027B007A00791D7F0579
:1009C300120570751E10751D037B007A00791D7F5B
:1009D30003020570E4F51C120962120BEED2AF7B21
:1009E300FF7A0C791B12005E7F64120071120026DD
:1009F3000000000000000000E53060097BFF7A0C76
:100A0300794512005EE4F530E51C24FF92B792B6F7
:100A130092959296929792CC631CFF053180C9C040
:100A2300E0C083C082C0D075D000C007E59A30E033
:100A330021539AFEE510C394804003751000AF1054
:100A4300051074802FF582E43400F583E59BF0757F
:100A53001105E59A30E106539AFD750F00D007D0D2
:100A6300D0D082D083D0E032C0E0C083C082C0D077
:100A730075D000C007E5AC30E02153ACFEE515C3EB
:100A830094404003751500AF15051574002FF582CA
:100A9300E43401F583E5ADF0751605E5AC30E10608
:100AA30053ACFD751400D007D0D0D082D083D0E0F2
:100AB30032C0E0C083C082C0D075D000C007E584D7
:100AC30030E0215384FEE51AC394204003751A00D5
:100AD300AF1A051A74C02FF582E43401F583E58556
:100AE300F0751B05E58430E1065384FD751900D0CC
:100AF30007D0D0D082D083D0E032C0E0C083C082A0
:100B0300C0D075D000C007309820C298E50BC394BD
:100B1300804003750B00AF0B050B74002FF582E4C7
:100B23003400F583E599F0750C05309905C2997584
:100B33000A00D007D0D0D082D083D0E032EFD39454
:100B43000140037FFF22EDD3940340037FFF22EF95
:100B53007004C2AA8002D2AAED700553B7FBC2BAD1
:100B6300BD010553B7FBD2BABD020543B704C2BAF0
:100B7300BD030543B704D2BA7F0022EFD3940140EB
:100B8300037FFF22EDD3940340037FFF22EF700422
:100B9300C2AC8002D2ACED700553B7EFC2BCBD014D
:100BA3000553B7EFD2BCBD020543B710C2BCBD03AA
:100BB3000543B710D2BC7F0022EFD3940140037FDB
:100BC300FF22EF7010C2891207C47004C28880022A
:100BD300D2887F0022BF0110C28B1207C47004C2E7
:100BE3008A8002D28A7F00227FFF22751D40751EF4
:100BF300017522007521C2752001751F007524013E
:100C0300E4F525FB7A00791D7F011200967D017FB3
:100C130001120B7E53A23F225354433848384B36BC
:100C23003455204558494E542057616B65757020E3
:100C3300546573742050726F6772616D6D65210D19
:100C43000A00CDE2D6D0B6CF494E5431BBBDD0D188
:050C530020200D0A0045
:00000001FF
