:1000000002105402003FBF010443BC802253BC7F56
:0100100022CD
:0D0013000200568F99750A01E50A70FC2263
:100023000212FB8CC3AF058FC4A2AF92D5C2AF75CA
:10003300C65A75C6A50000A2D592AF22751C01321F
:1000430002122005620821415A7800AE0702001609
:07005300020086751C023259
:10005B0002008E754E1FE4F551755203754F0F75E7
:10006B005001FB7A00794E1211CB7F01120006E48E
:05007B00FDFF02137CF3
:07008300021518751C033281
:07008B00021269751C04322A
:100093000212B28F578B588A59895AE55764016007
:1000A3000302020CF508F509F50AF50BF50CF55BEF
:1000B300F55C7440255CF5827401355BF583E4F0EF
:1000C300055CE55C7002055B6480455B70E4E4F508
:1000D3005BF55C7400255CF5827400355BF583E4A5
:1000E300F0055CE55C7002055B6480455B70E4AB26
:1000F30058AA59A95A1209C2FFE598543F4FF598D7
:10010300EF64C06008EF644060030201C190000225
:10011300120B0C7F807E8D7D5B7C00120A568F60F4
:100123008E5F8D5E8C5DE4FFFE7D01FCAB60AA5F9C
:10013300A95EA85DC3120AE840037FFF22C3E495CA
:1001430060F560E4955FF55F7401955EF55EE49597
:100153005DF55DAB58AA59A95A9000011209DBFB62
:100163006401702CC28E538EFE5389BF5389CF43D3
:100173008E40AF60AE5FAD5EAC5D7808120AF98F5A
:100183008D85608BC2AB5389BF538FFDD28E806246
:10019300EB64027026538EEF438E01538EF7438E2A
:1001A30004AF60AE5FAD5EAC5D7808120AF98FD61E
:1001B3008560D753AFFB438E1080377FFF22AB5848
:1001C300AA59A95A1209C2FF70139000081209DB39
:1001D300B40105438E20801A538EDF8015EFB4805F
:1001E300119000081209DBB4010543878080035393
:1001F300877FAB58AA59A95A9000071209DB7004EC
:10020300C29C8002D29C7F0022E5576402600302F5
:100213000305F50DF50EF50FF510F511F55BF55C1E
:1002230074E0255CF5827401355BF583E4F0055CCD
:10023300E55C7002055B6480455B70E4E4F55BF5A7
:100243005C7480255CF5827400355BF583E4F0050E
:100253005CE55C7002055B6480455B70E4AB58AAA7
:1002630059A95A1209C2FF64C06005EF6440707552
:10027300EFB4C005439A808003539A7F9000021223
:100283000B0C7F807E8D7D5B7C00120A568F608E07
:100293005F8D5E8C5DE4FFFE7D01FCAB60AA5FA910
:1002A3005EA85DC3120AE840037FFF22C3E49560A2
:1002B300F560E4955FF55F7401955EF55EE4955D29
:1002C300F55D538EEF538EF7438E04AF60AE5FAD93
:1002D3005EAC5D7808120AF98FD68560D753AFFB01
:1002E300438E1080037FFF22AB58AA59A95A90006E
:1002F300071209DBC454F0FFE59A54EF4FF59A7FD8
:100303000022E55764036003020439F512F513F57F
:1003130014F515F516F55BF55C7460255CF58274D0
:1003230002355BF583E4F0055CE55C7002055B6414
:1003330040455B70E4E4F55BF55C7400255CF58295
:100343007401355BF583E4F0055CE55C7002055BE5
:100353006440455B70E4AB58AA59A95A1209C2FF1D
:1003630064C06008EF6440600302041CEFB4C0057E
:1003730043AC80800353AC7F900002120B0C7F8050
:100383007E8D7D5B7C00120A568F608E5F8D5E8C46
:100393005DE4FFFE7D01FCAB60AA5FA95EA85DC3BF
:1003A300120AE840037FFF22C3E49560F560E495F9
:1003B3005FF55F7401955EF55EE4955DF55DAB58A1
:1003C300AA59A95A9000011209DBFBB4031D43ACDF
:1003D30040AF60AE5FAD5EAC5D7808120AF98FD4B2
:1003E3008560D553D1F043D10A8031EB6402702686
:1003F300538EEF53ACBF538EF7438E04AF60AE5FA3
:10040300AD5EAC5D7808120AF98FD68560D753AF1D
:10041300FB438E1080067FFF227FFF22AB58AA5931
:10042300A95A9000071209DBC454F0FFE5AC54EF5E
:100433004FF5AC7F0022E5576404600302056DF5B8
:1004430017F518F519F51AF51BF55BF55C74A0257E
:100453005CF5827402355BF583E4F0055CE55C7062
:1004630002055B6420455B70E4E4F55BF55C74C0F6
:10047300255CF5827401355BF583E4F0055CE55C8E
:100483007002055B6420455B70E4AB58AA59A95A16
:100493001209C2FF64C06008EF64406003020550A4
:1004A300EFB4C005438480800353847F900002121D
:1004B3000B0C7F807E8D7D5B7C00120A568F608ED5
:1004C3005F8D5E8C5DE4FFFE7D01FCAB60AA5FA9DE
:1004D3005EA85DC3120AE840037FFF22C3E4956070
:1004E300F560E4955FF55F7401955EF55EE4955DF7
:1004F300F55DAB58AA59A95A9000011209DBFBB468
:10050300041D438440AF60AE5FAD5EAC5D780812FE
:100513000AF98FD28560D353D10F43D1A08031EB39
:1005230064027026538EEF5384BF538EF7438E04B9
:10053300AF60AE5FAD5EAC5D7808120AF98FD68509
:1005430060D753AFFB438E1080067FFF227FFF22CD
:10055300AB58AA59A95A9000071209DBC454F0FFFB
:10056300E58454EF4FF5847F00227FFF22E55D246D
:1005730051F8E6055D22784E3007027851E475F0B4
:1005830001120B9E0209C22000EB7F2ED2008018BD
:10059300EF540F2490D43440D4FF30040BEF24BF26
:1005A300B41A0050032461FFE55E6002155E056125
:1005B300E5617002056030070D784EE475F00112B5
:1005C3000B9EEF020A0802004E7403D2078003E475
:1005D300C207F55D8B4E8A4F8950E4F55EF560F5F1
:1005E30061E55E60077F201205AB80F5755FFFC292
:1005F30001C200C202C203C205C206C208120579C3
:10060300FF700D3007057F001205BCAF61AE60229D
:10061300B4255FC2D5C204120579FF24D0B40A0001
:10062300501A75F00A785E30D50508B6FF0106C684
:10063300A426F620D5047002D20380D924CFB41A9D
:1006430000EF5004C2E5D2040207BCD20180C6D237
:100653000080C0D20280BCD2D580BAD20580B47FDC
:10066300201205AB2002077401B55E0040F11205AC
:1006730070FF1205AB0205E4D208D206809512057D
:1006830070FB120570FA120570F94A4B7006798DEA
:100693007A087BFF20022EE55E602A7E008E82753B
:1006A30083001209DB60060EEE655F70F0C2D5EBC6
:1006B300C0E0EAC0E0E9C0E0EE120803D0E0F9D000
:1006C300E0FAD0E0FB1209C2FF60AAEBC0E0EAC087
:1006D300E0E9C0E01205ABD0E02401F9D0E034003A
:1006E300FAD0E0FBE55F0460DCD55FD980877BFF50
:1006F3007A0779FFD202809C791080027908C206BA
:10070300C2088008D2D5790A8004790AC2D5E55F88
:10071300047002F55FE4FAFDFEFF120570FC7B082E
:10072300200113120570FD7B1030000A120570FEC4
:10073300120570FF7B20EC3382D592D55013C3E4AE
:100743003000069FFFE49EFEE42001039DFDE49C30
:10075300FCE4CBF8C201EC700CCFCECDCCE824F88E
:10076300F870F38017C3EF33FFEE33FEED33FDEC88
:1007730033FCEB33FB994002FB0FD8E9EB30010567
:10078300F8D0E0C448B201C0E00AEC4D4E4F7820E7
:100793007B0070C2EAB55F0040BCC0E0120805D020
:1007A300F0D0E0200104C4C0E0C4B201C0F01205DF
:1007B30094D0F0D5F0EB0205E4120BAE068153069C
:1007C300FB5806524C064E4206FF4F0707440707E5
:1007D30049066743070D5506F14606F14506F147FD
:1007E30008AD5006562D065A2E067D2B065E2306AF
:1007F3007B2008962A061648000006753F3F3F00F7
:10080300790AA2D5200314300509B910020404B9EA
:10081300080104A2D52006025001042002689202B6
:10082300B55E005034C0E07F203003197F30A20250
:1008330072067205500F12085CC202C206C205C2DC
:10084300087F30800F300503E9C0E01205AB3005A7
:1008530003D0E0F9D0E0B55ECC3005177F30B91096
:100863000C1205AB7F583004077F788003B9080367
:100873001205AB3002057F2D0205AB7F202008F85F
:100883007F2B2006F322920280CF286E756C6C2991
:1008930000D2011205703001F8C201785E30D50133
:1008A30008F60206162D504349581205702403B466
:1008B30005004001E49008A89312059C743A1205C0
:1008C3009CD203755E040206FBE709F608DFFA8093
:1008D30046E709F208DFFA803E88828C83E709F055
:1008E300A3DFFA8032E309F608DFFA8078E309F23E
:1008F30008DFFA807088828C83E309F0A3DFFA8033
:100903006489828A83E0A3F608DFFA805889828AA1
:1009130083E0A3F208DFFA804C80D280FA80C6809D
:10092300D4806980F28033801080A680EA809A8028
:10093300A880DA80E280CA803389828A83ECFAE471
:1009430093A3C8C582C8CCC583CCF0A3C8C582C84D
:10095300CCC583CCDFE9DEE7800D89828A83E4930B
:10096300A3F608DFF9ECFAA9F0EDFB2289828A836A
:10097300ECFAE0A3C8C582C8CCC583CCF0A3C8C534
:1009830082C8CCC583CCDFEADEE880DB89828A8338
:10099300E493A3F208DFF980CC88F0EF60010E4EF8
:1009A30060C388F0ED2402B4040050B9F582EB244F
:1009B30002B4040050AF232345822390091C73BB68
:1009C300010689828A83E0225002E722BBFE02E30A
:1009D3002289828A83E49322BB010CE58229F58272
:1009E300E5833AF583E0225006E92582F8E622BB47
:1009F300FE06E92582F8E222E58229F582E5833ABB
:100A0300F583E49322BB010689828A83F022500294
:100A1300F722BBFE01F32275F008758200EF2FFF6A
:100A2300EE33FECD33CDCC33CCC58233C5829BEDC3
:100A33009AEC99E58298400CF582EE9BFEED9AFDC7
:100A4300EC99FC0FD5F0D6E4CEFBE4CDFAE4CCF977
:100A5300A88222B800C1B90059BA002DEC8BF084EA
:100A6300CFCECDFCE5F0CBF97818EF2FFFEE33FEB8
:100A7300ED33FDEC33FCEB33FB10D703994004EB70
:100A830099FB0FD8E5E4F9FA227818EF2FFFEE333C
:100A9300FEED33FDEC33FCC933C910D7059BE99A4E
:100AA3004007EC9BFCE99AF90FD8E0E4C9FAE4CCDF
:100AB300FB2275F010EF2FFFEE33FEED33FDCC3349
:100AC300CCC833C810D7079BEC9AE899400AED9B32
:100AD300FDEC9AFCE899F80FD5F0DAE4CDFBE4CC11
:100AE300FAE4C8F922EB9FF5F0EA9E42F0E99D4251
:100AF300F0E89C45F022E8600FECC313FCED13FD16
:100B0300EE13FEEF13FFD8F122BB010DE58229F5A9
:100B130082E5833AF583020B755007E92582F802D3
:100B23000B68BBFE07E92582F8020B81E58229F5F4
:100B330082E5833AF583020B8EEF4E6012EF60017C
:100B43000EEDBB010B89828A83F0A3DFFCDEFA2260
:100B530089F05007F709DFFCA9F022BBFEFCF3097B
:100B6300DFFCA9F022E6FB08E6F908E6FA08E6CB83
:100B7300F822E0F8A3E0F9A3E0FAA3E0FB22E2FB0A
:100B830008E2F908E2FA08E2CBF822E493F87401E8
:100B930093F9740293FA740393FB22FAE6FB0808B1
:100BA300E6F925F0F618E6CA3AF622D083D082F8A1
:100BB300E4937012740193700DA3A393F8740193DB
:100BC300F5828883E4737402936860EFA3A3A38020
:100BD300DFEFD3940740037FFF221209C2FED394B1
:100BE3000340037FFF22EF7041EE700B9000011270
:100BF30009DBF4529352941209C2B4010B90000121
:100C03001209DB4293F452941209C2FEB4020A9011
:100C130000011209DB42934294EEB4030D900001EC
:100C23001209DBFEF45293EE4294EF640170431217
:100C330009C2FE700B9000011209DBF4529152922B
:100C4300EEB4010B9000011209DB4291F4529212AF
:100C530009C2B4020A9000011209DB4291429212C6
:100C630009C2B4030D9000011209DBFEF45291EEA8
:100C73004292EF640270431209C2FE700B900001AE
:100C83001209DBF452955296EEB4010B9000011257
:100C930009DB4295F452961209C2B4020A9000018C
:100CA3001209DB429542961209C2B4030D9000016A
:100CB3001209DBFEF45295EE4296EF640370431281
:100CC30009C2FE700B9000011209DBF452B152B25B
:100CD300EEB4010B9000011209DB42B1F452B212DF
:100CE30009C2B4020A9000011209DB42B142B212F6
:100CF30009C2B4030D9000011209DBFEF452B1EEF8
:100D030042B2EF640470431209C2FE700B900001FB
:100D13001209DBF452B352B4EEB4010B900001128A
:100D230009DB42B3F452B41209C2B4020A900001BF
:100D33001209DB42B342B41209C2B4030D9000019D
:100D43001209DBFEF452B3EE42B4EF6405704312B2
:100D530009C2FE700B9000011209DBF452C952CA9A
:100D6300EEB4010B9000011209DB42C9F452CA121E
:100D730009C2B4020A9000011209DB42C942CA1235
:100D830009C2B4030D9000011209DBFEF452C9EE4F
:100D930042CAEF640670431209C2FE700B90000151
:100DA3001209DBF452CB52CCEEB4010B90000112CA
:100DB30009DB42CBF452CC1209C2B4020A900001FF
:100DC3001209DB42CB42CC1209C2B4030D900001DD
:100DD3001209DBFEF452CBEE42CCEF6407704312F0
:100DE30009C2FF700B9000011209DBF452E152E2D9
:100DF300EFB4010B9000011209DB42E1F452E2125D
:100E030009C2B4020A9000011209DB42E142E21274
:100E130009C2B4030D9000011209DBFFF452E1EFA4
:100E230042E27F0022E4F52278237C00FD7BFF7AF7
:100E3300157964FE7F2012099CE4F543F544F545DA
:100E4300F546F547F54BF54AF549F548F54C754D2B
:100E53000412115612005E121492D2AFC2CC7BFF61
:100E63007A15791C1214D47B007A00792375530008
:100E7300755402E4FFFE12146178447C007D007B0C
:100E8300007A0079237E007F0212099CC3E5459412
:100E930003E54464809480400DD3E5459400E54424
:100EA3006480948440067544007545037551FF754D
:100EB30052157553318544548545557B007A007925
:100EC300231205CC7B007A0079231214D47E007F91
:100ED300207D007B007A007923120B3CE54B240133
:100EE300F54BE4354AF54AE43549F549E43548F527
:100EF300487F141214FA1214BFE51C640270797B44
:100F0300FF7A15793F1214D4E4FFFE1214E77E0032
:100F13007F207D007B007A007923120B3C7551FF03
:100F23007552157553528546548547557B007A0093
:100F330079231205CC7B007A0079231214D47E0026
:100F43007F207D007B007A007923120B3C78237C81
:100F5300007D007B007A0079467E007F0212099CA7
:100F63008546448547457B007A0079237553007590
:100F73005402E4FFFE1213F8E4F51C7F0A1210E09A
:100F83008E468F47D3E5479400E5469404400675A3
:100F93004604754700C3E5479562E5469400400E55
:100FA300E5479563E54694005004C2B68002D2B685
:100FB300C3E5479563E5469400400EE5479564E530
:100FC3004694005004C2B78002D2B7C3E547956484
:100FD300E5469400400EE5479565E54694005004C8
:100FE300C2958002D295C3E5479565E546940040D6
:100FF3000EE5479566E54694005004C2968002D2FA
:1010030096C3E5479566E54694004004C29780027F
:10101300D297D3E5479545E54695444006C2CCC2F1
:10102300B48004D2CCD2B46322FFE47B14FAF9F87F
:10103300AF4BAE4AAD49AC48120A56AC00AD01AE57
:1010430002AF03EC4D4E4F6003020EDFE543020E89
:10105300DF787FE4F6D8FD75816702109B020E28C6
:10106300E493A3F8E493A34003F68001F208DFF4CA
:101073008029E493A3F85407240CC8C333C4540F42
:101083004420C8834004F456800146F6DFE4800B15
:101093000102040810204080900046E47E01936022
:1010A300BCA3FF543F30E509541FFEE493A3600142
:1010B3000ECF54C025E060A840B8E493A3FAE493AC
:1010C300A3F8E493A3C8C582C8CAC583CAF0A3C85A
:1010D300C582C8CAC583CADFE9DEE780BEEFD39401
:1010E3000F40028069E4F5BDF5BEE5BC54F0444011
:1010F3004FF5BC00000000000000000000E4FDE527
:10110300BC30E54653BCDFE5DE30E510AFBDEFFE96
:10111300ACBEECFBEEF54EEBF54F8029AFBD754E43
:10112300008F4FE5BEC4131354037A005403FBAE80
:101133004EE54F7802C333CE33CED8F9FFEE4AF5EE
:101143004EEF4BF54FAE4EAF4F220DBDFAB17E10B1
:101153007F0022754F08E4F54EFB7A00794E7F033A
:10116300120BD4754F04754E017B007A00794E7FC4
:1011730003120BD4754F03E4F54EFB7A00794E7FCF
:1011830003120BD4754FC0754E027B007A00794E63
:101193007F03120BD4754FE0754E027B007A007902
:1011A3004E7F01120BD4754F10754E027B007A00EF
:1011B300794E7F05120BD4754F10754E037B007A61
:1011C30000794E7F03020BD49000011209DBFFE587
:1011D300DE54F04FF5DE9000021209DBC43354E015
:1011E300FFE5DE54DF4FF5DE1209C2FFD3941F5033
:1011F3002B9000031209DBFED39401501F900004CF
:101203001209DBFDD394035013EDC43354E0FDEE18
:10121300C433333354804D4F90FEA8F022C0E0C056
:1012230083C082C0D075D000C007E59A30E0215357
:101233009AFEE510C394804003751000AF100510AB
:1012430074802FF582E43400F583E59BF075110576
:10125300E59A30E106539AFD750F00D007D0D0D040
:1012630082D083D0E032C0E0C083C082C0D075D0CA
:1012730000C007E5AC30E02153ACFEE515C3944054
:101283004003751500AF15051574002FF582E4347E
:1012930001F583E5ADF0751605E5AC30E10653AC19
:1012A300FD751400D007D0D0D082D083D0E032C0F7
:1012B300E0C083C082C0D075D000C007E58430E0B1
:1012C300215384FEE51AC394204003751A00AF1A14
:1012D300051A74C02FF582E43401F583E585F075B2
:1012E3001B05E58430E1065384FD751900D007D052
:1012F300D0D082D083D0E032C0E0C083C082C0D0DF
:1013030075D000C007309820C298E50BC394804085
:1013130003750B00AF0B050B74002FF582E434004B
:10132300F583E599F0750C05309905C299750A00A6
:10133300D007D0D0D082D083D0E032EFD394014015
:10134300037FFF22EDD3940340037FFF22EF70045A
:10135300C2AA8002D2AAED700553B7FBC2BABD017F
:101363000553B7FBD2BABD020543B704C2BABD03E6
:101373000543B704D2BA7F0022EFD3940140037F21
:10138300FF22EDD3940340037FFF22EF7004C2AD2D
:101393008002D2ADED700553B7DFC2BDBD01055369
:1013A300B7DFD2BDBD020543B720C2BDBD030543B0
:1013B300B720D2BD7F0022EFD3940140037FFF22E9
:1013C300EDD3940340037FFF22EF7004C2AC80028D
:1013D300D2ACED700553B7EFC2BCBD010553B7EFF7
:1013E300D2BCBD020543B710C2BCBD030543B71051
:1013F300D2BC7F0022AD07AC0675C78075F51875A2
:10140300C5028CC3AF058FC41209C2F5C212002CEA
:101413000DBD00010C740129F9E43AFAE5541554A1
:101423007002155314455370D902150AEFD3940172
:1014330040037FFF22EF7010C2891209C27004C2F9
:10144300888002D2887F0022BF0110C28B1209C29A
:101453007004C28A8002D28A7F00227FFF22AD07F6
:10146300AC0675C78075F51875C501120026E5C26F
:10147300120A080DBD00010C740129F9E43AFAE5DA
:101483005415547002155314455370DF02150A7531
:101493004E40754F017553007552C2755101755019
:1014A30000755501E4F556FB7A00794E7F01120071
:1014B300967D017F011213BA53A23F22754E017B21
:1014C300007A00794E7F0112142FE4FD7F0102138D
:1014D3003E1209C2FF600C120016740129F9E43AA6
:1014E300FA80EE22AD07AC0675C78075F51875C591
:1014F3000312002602150A7D607C09ED1D70011C94
:10150300144C70F7DFF122E4F5C7F5C5F5C675C3D2
:10151300FF75C4FF22751C053273797374656D20E2
:10152300696E69742066696E6973680D0A00706C70
:101533006320666C61672025640D0A00CDE2D6D076
:10154300B6CF494E5431BBBDD0D120200D0A007710
:1015530072697465206275666665722025640D0A7A
:101563000000000000000000000000000000000078
:101573000000000000000000000000000000000068
:011583000067
:00000001FF
